:100000000C94C6570C9430580C9430580C943058BB
:100010000C9430580C9430580C9430580C94305840
:100020000C9430580C9430580C9430580C94305830
:100030000C9430580C94995A0C94D95A0C9430580A
:100040000C9430580C9430580C9430580C94305810
:100050000C9430580C9430580C9430580C94305800
:100060000C9430580C9430580C9430580C943058F0
:100070000468EB69EB69EB69EB69E8690A68206879
:1000800051686A68E8690A68206851686A68E869BE
:100090008168D368E86925693968E8699469C06945
:1000A000E8690468166A7D6A846A8B6A926A6D6C74
:1000B000996ACC6AF96A276B6D6C996ACC6AF96A9D
:1000C000276B6D6C596BAC6B6D6CFF6B206C6D6C42
:1000D000536C606C6D6C4B6A8100450027FF24FFF8
:1000E0002A902B1C210C22FB850084008903888D1B
:1000F00081096F02444247004501B083B300B1015A
:1001000025118A4F8B035A55012001010038080040
:1001100000000000000000000000000000000000DF
:10012000000000000000255D285D845D895D915D13
:10013000305D355D3A5D9A5D3D5D405D435D7E5D60
:10014000815DAA5D00408891D2E4ADB5B6BEBFFF27
:10015000050300131415161718191A1B1C1D1E1F52
:10016000000504000102030405060708090A0B0C38
:100170000D000E0F10111200000000000000000022
:10018000000000000000000000000000000000006F
:10019000000000000000000000000000000000005F
:1001A000000000000000000000000000000000004F
:1001B000000000000000000000000000000000003F
:1001C000000000000000000000000000000000002F
:1001D00000000000000049000000000049525200E9
:1001E00000004952531C25004952522425251B5218
:1001F000525C2D2D1C1212000000000000000000B7
:100200000000004049494900404949525B5B5B4A54
:1002100052525B1C1C13125B1C241C12090909247A
:100220001B12090909090A0A0A0A0A0A0A0A130A10
:100230000A120A0A12130A000000000000000092CD
:100240005252525252524913121309001C1B130AE4
:100250001212401B65641C090A0009241B1C65124C
:100260000000251C1C1C1C010025241C1C1C1C003F
:1002700024252424241C1C00000000000000004948
:100280004000000000000052494900000000001C2E
:100290005B4A48000000001C255249000000006530
:1002A0002464490000000065256449000000006DD9
:1002B0002E5C4900000000000000000000405200D9
:1002C0000000000049525C00000000535224250049
:1002D0000000535225252500004A5225251B000009
:1002E000005B251300001B005B53000A1C37370915
:1002F0005B1C657F372E2E522E2E1C131312002EE0
:10030000251B13120000121C1C12000012251C12C7
:100310000000122E371C1300132E37361C131B3708
:10032000372E2E25131C1C2E2E2E2E1B1C1C1C6E35
:100330006E6E1C1C1C1C1C091313121213130013C9
:10034000131313131C0009131313131C0100371389
:1003500013131C13002E2E1B1B1C1C001C772E1BA2
:100360001B2500137F251C1C1C010A37241C1C1C88
:10037000130A2E25250900132E2425252525252E93
:100380002525252525252525252D2E251B1C1C2E1F
:100390002E251C13251B13251C1C1C1C0109521C7B
:1003A0001C1300011C5B5C0A000165775C1B0001EB
:1003B0006E7F6E521B00006D1C5249000000001C35
:1003C000135300000000001C524A00000000005BB4
:1003D0005B0000000000005C000000000000000066
:1003E000000000000000000000000000000000000D
:1003F00000000000000000135B7F776E6E6E6E13CE
:100400006577766E6E6E6E1B65777676766E771B89
:100410005BBF76B676767609136DBFB7B6B7650063
:100420001B125C76BF766D0000121B125B5B5C00DA
:10043000000000090A12136E77241C1C1C1C1C7778
:10044000251C1C1C1C24256E1C1C1C2425251B1C67
:100450001C242525130000646D6D1B00096EBF6D03
:100460005B09126EBF6D5B5B125B645B1213121350
:100470001B1212090100001C242E1C0900096E2504
:1004800024010009767F7F000012777F7F64126469
:10049000BFBF775B121B09BF6D5B121B0900001207
:1004A000131B09000000000900000000000000000C
:1004B000000000000000007F7F5313130000006461
:1004C000121B01000000001B1200000000000000D1
:1004D000000000000000000000000000000000001C
:1004E000000000000000000000000000000000000C
:1004F00000000000000000000000000000000026D6
:10050000000000260026262F0000002F00000037E4
:1005100000000037000000FF000000FF000000BFE7
:10052000000000BF0000BF370000370000370000A8
:1005300026260000002626000000000000000026FD
:100540002626002626262600002F002F0000000069
:1005500037000037000000FF000000FFFFFFFF0032
:10056000000000BF0000000000000037000000266F
:100570002626002626262600000000000000002671
:100580000026262626000000002F0000002F000075
:10059000003700000037000000FFFFFFFF000000F1
:1005A00000BF000000BF0000003700000037002639
:1005B00000262626260000000000000000000000A3
:1005C00000262626002600002F00002F002F0037CF
:1005D00000000037000037FF000000FF000000BFF0
:1005E000000000BF0000BF370000370000370026C2
:1005F0002626000000260000000000000000000089
:100600000026000000000000002F00000000000095
:1006100037000000000000FF0000000000000000A4
:10062000BF000000000000000037000000000000D4
:100630000026000000000000000000000000000094
:1006400000000000000000000000000000000000AA
:10065000000000000000E400000000099BEDF6002F
:1006600000009BA4ADBFBF00529BA4767F7FB75B09
:100670009B6D777F766EB7000000000000000000E1
:100680000000005BB6F6F6005BF6FFFFFFFFBFF66B
:10069000FFFFFFFFBFBFAEFFBFFFFFFFB7AD65BFEF
:1006A000BFFFFFB7B6AD65B7BFFFFFBFB7AE6EB751
:1006B000BFFFFFBFB7B7650000000000000000F6F5
:1006C000F6EDEDADA4A49BB66D6D5C526E656465F0
:1006D00065655265766D255C5C52536E24656E656A
:1006E00052526E252524255B52772D25252524522F
:1006F0006E6E2D2525252500000000000000009BC2
:1007000049000000000000A49B92000000000025AA
:1007100064934900000000652E9B52000000006DAC
:10072000256552000000006D2D6552000000006E2E
:100730002E645200000000000000000000495B0031
:10074000000000004A5B65000000005B9B6D2D000F
:1007500000005B5B2D2E250000525B2E2E1C090035
:10076000015B2D1C01091C005C5B014A65777F4A17
:100770005B1C6E7F7777769B77776D656E6EA4775F
:100780006E6565655BA4B725255C52526DBFBF13CE
:100790000949647FBFBFBF095C7F7FBFBFB7BF7F11
:1007A0007F777F7FB7BFBF77777F7F6EB7BFBF771A
:1007B0007F7F6E77BFBFBFB6FFFFFFBFBFB75BBF17
:1007C000FFFFFFBFBFA464BFFFFFFFBFADA47FBF9C
:1007D000FFFFFFBFA4BF7FFFFFFFBFADBFBFBFFFD6
:1007E000FFFFB6BFBFBF77FFFFF7BFBFBF7777FF82
:1007F000FFFFBFBFBF64526D7F6E2E2D2D256E7F14
:10080000766E6E6E2E2565777777762E1C25247F83
:10081000776E251C251C1B776525251C090A5B6E38
:100820006E1C09492564645B494A6E7F645C005311
:1008300077BF775B5C00006E255B4A000000001C00
:100840001B5B0000000000245B5300000000005B05
:100850005C000000000000640000000000000000D8
:100860000000000000000000000000000000000088
:10087000000000000000005B5C7FBF777677775C4C
:100880006D7FB7777777775C6D7FBF777777BF5C62
:1008900064BFBFBFBFBF7F0A5C6EBFBFBFBF760074
:1008A00065646DBFBFBFBF00005B6D646DADB6001A
:1008B000000000125B646D777F6E6E77BFBFBF7FF5
:1008C000766D7677BFBFBF776D6E767FBFBFBF6D2A
:1008D0006E767FBFB7ADF676BFBF76A4ADFFFFBF24
:1008E000B664ADFFFFFFFFB6ADBFFFFFFFFFF6AD84
:1008F000B6AD645B520000FFFFBFBFAD5B64BFFFDE
:10090000FFB6ADADBFFFBFFFF6FFFFFFFFBF64FF48
:10091000FFFFFFBFB6765BFFFFFFBFBF5B0000FFBF
:10092000FFFF5C00000000A40000000000000000C9
:1009300000000000000000BFBF645C5C0000006EAF
:100940005C6549000000006D5B00000000000000D5
:100950000000000000000000000000000000000097
:100960000000000000000000000000000000000087
:1009700000000000000000000000800900000000EE
:1009800000020100085504085A0000F80009900010
:100990000A1E32050000FF5448495320444F455376
:1009A000204E4F5420424C4F434B204C4153455214
:1009B000005052455353204120544F20434F4E5432
:1009C000494E55450042452055534544204153204A
:1009D000410043414E004D5553540043454C4C207B
:1009E000424C4F434B455200434845434B504F49BF
:1009F0004E5400444F55424C45204D4952524F529F
:100A0000004245414D2053504C4954544552004DED
:100A10004952524F52005B00544152474554004CDA
:100A2000415345520053454C4543542020544F47B1
:100A3000474C45204D5553494300525B20582020D8
:100A4000524F5441544520544F4B454E2052494734
:100A50004854004C5B20422020524F5441544520C2
:100A6000544F4B454E204C4546540059202041439D
:100A7000544956415445204C415345520041202091
:100A8000434C49434B5B20445241475C414E445CDC
:100A900044524F5000445C50414420204D4F564535
:100AA00020435552534F52004558434C5544494EEC
:100AB00047205448452043454C4C20424C4F434B23
:100AC000455200544F4B454E204154204C45415314
:100AD00054204F4E434500544845204C4153455205
:100AE000204D55535420544F5543482045564552A8
:100AF0005900544F4B454E5300434F4E54524F4CA8
:100B00005300504C415900555A45424F58204741D7
:100B10004D4520204D4154542050414E44494E41B2
:100B2000005441444120534F554E4420204D494BE1
:100B300045204B4F454E49470054414E59412054A2
:100B4000484F4D50534F4E004C554B4520484F4F4A
:100B50005045525B0054594C455220534F4D45521D
:100B60005B0050555A5A4C455320205745495C4824
:100B700055414E475B00494E56454E544F5220203A
:100B80004C554B4520484F4F504552001C3663632F
:100B90007F6363003F63633F63633F003C6603031F
:100BA00003663C001F33636363331F007F03033F0F
:100BB00003037F007F03033F030303007C060373EB
:100BC00063667C006363637F636363007E18181849
:100BD00018187E007830303030311E0063331B0F20
:100BE0001F3B73000606060606067E0063777F7FBE
:100BF0006B63630063676F7F7B7363003E63636354
:100C000063633E003F6363633F0303003E636363CC
:100C10007B335E003F6363731F3B73001E33033EF1
:100C200060633E007E181818181818006363636329
:100C300063633E00636363773E1C080063636B7FFE
:100C40007F77630063773E1C3E7763006666663C91
:100C5000181818007F70381C0E077F000000000075
:100C60000C0C06000000003E000000000004010221
:100C70000305090607080A0E0B0C0D0F11101214BC
:100C800013151716181900020304010507080906B1
:100C90000A0C0D0E0B0F111012141315171618193C
:100CA000000000FF010101FF020202FF030303FF36
:100CB0000404040000000000000300000000000025
:100CC00000000000000B0000000000000000000019
:100CD00000000300000000000000000014000B00F2
:100CE0000000000000150000000001000000000EE0
:100CF00000000000000000000000060000000005E9
:100D000000000000000000000E00000000000000D5
:100D1000000000060000000801000000000A0000BA
:100D200000000100000000000000000000000000C2
:100D300000000A000000070A0F0000000000000089
:100D40000000000000000000000000060000000796
:100D5000090B000001050000000001000300000075
:100D60001700000000000000000000000000000A62
:100D70000000000009030000001700000000000050
:100D8000000000000000000009080000000A0A003E
:100D9000000001000F000000000000000000000043
:100DA0000000000000000F0019000000000E00000D
:100DB0000000000000000000000000021000000B16
:100DC0000019000000051200000002000F000000E2
:100DD00000000000000000000000000000160000FD
:100DE00000000000000E00000000000000000000F5
:100DF00000000000140016040000000000051500AB
:100E0000000001000E0000000200000007000000CA
:100E1000000000000000000009000008000E0000B3
:100E200000021400000700000000000000000000A5
:100E300000090000081500000000010F0016000066
:100E400000000000000000000000000000000000A2
:100E5000000500190D00160700000000000000004A
:100E6000000000000000000000000208190A0A004B
:100E70000000010F00000000000000000019001534
:100E80000000000000000000000000050D00070049
:100E9000000000000000190014000700000000001E
:100EA00000000000010A0A00000001000000000A22
:100EB0000000000000000000000000000000000F23
:100EC0000500000006000000070000000000000010
:100ED00000000000000000000C020000080A0A00E8
:100EE0000000010000000A0000000000000A0000ED
:100EF000000000000000000500000A0000000009DA
:100F000000000000000008000011000000000000C8
:100F10000200000800120000000002000000000FA4
:100F2000000018000000001500000000000000058F
:100F300000000000000006000B0000170000060083
:100F4000130000000000000001000000000A0A0079
:100F5000000001000005001400000000000D00006A
:100F600000000F0000000A00000000000000020066
:100F70001400000000000D000000100D000000082B
:100F8000000000000012000000000200000000004D
:100F9000000A00070000000A1400000A000A00000E
:100FA0000000000000000000000006000700000034
:100FB00008140400090008000000000000050000FB
:100FC0000000010000000000000A000A0000000903
:100FD0001400000A000A00000000000000000300E6
:100FE00000000600060000000914000009000800C7
:100FF00000000000000500000000010000000000EB
:1010000000000000000000000A00000300000000D3
:10101000000C0000000000000000000000000600BE
:10102000110600000300000009080C00000A0A0A6B
:10103000120002050000000F000000140000000074
:10104000000000000000000000000000020000118D
:101050000B000000140B0000000000000000000066
:1010600000000000000F120000000200000000005D
:1010700000001800000000000000000A000A000044
:101080000A0F0A0000000300000000170000000023
:10109000000000000600070000090D080005000020
:1010A0000000010000000F0000050000000000002B
:1010B00000000000000D0000000000000000000E15
:1010C00000000200100700000000000000000D08F2
:1010D00000000000000A0A120000020000000F00D9
:1010E0000D00000019001800000F000000000000B3
:1010F000000000000000000E000D00001119021693
:1011000000100B000000000000000000000512129B
:1011100000000300001000000000000000000000BC
:1011200000000000000000000F0F0F00001310105F
:1011300004000000000000000000000000000000AB
:10114000000C0C0C0005151200000300000000004C
:101150000F0002000F00150000000000000000005A
:1011600000000F0000000000000D0702110B00142A
:1011700000100000000000000000000C000A121225
:10118000000003000000000F000000000000180035
:10119000000000030000000000000000000000004C
:1011A0000E000000000008160000110003000000FF
:1011B00000090000080A0A0A1200020000000004E8
:1011C00000000000000F0000000000000000000A06
:1011D00000001600060000000400000000000E00E1
:1011E000000007000000000009000016080A0A0AB3
:1011F00000000105000019000000000000000000D0
:10120000000000001812000000000F000300001989
:101210000000000000000000000000140016110B88
:101220000000000C000F1500000002000000190073
:10123000170000000000000000000A14050A00006A
:101240000000000009000019001700000000000065
:10125000000000091402070000090008000A0A0A39
:101260000000010000000000170000000000000066
:1012700000000A14050A000000001900060000071B
:101280000017000000000000000000091402080020
:1012900000070019000A0A0A00000100000000000F
:1012A00000000019000008130005000000080000FD
:1012B00000000000000006070000001719000008E9
:1012C000130004000009080000000000000A0A0AD8
:1012D00018000100000000000000000E00050000E2
:1012E000140000000000000000000F0000000000DB
:1012F000000000000E0002000014070000001108AA
:101300000000000C000A0A1200000200000A00009F
:10131000000A000A000018000000000F100A000078
:101320000000000000000900000006000700001790
:10133000000000000C100800000001000005000083
:101340000000020A00000A00000000000017000070
:10135000000000000000051900000F000600000753
:101360000000000000001700000000090000140445
:101370001900000C000A150000000100000A000A14
:101380000000000000000500070000000000171426
:101390000000000000000810070000000000060424
:1013A000000700000000001714000000080A0A12DD
:1013B0000000020000000000000015000F00000007
:1013C000000005001900000000000F0000000000F0
:1013D00000000013000B00000000000300190000D3
:1013E0000900100B000A12000000020000030000B8
:1013F0000000000B000000001800140000000000B6
:101400000000000000000300000600000B000000C8
:10141000091607140000000800000000000A0A0A6C
:101420000A000100000A00000F18000500000A125F
:1014300000000A000A00000000000000130007007E
:10144000000E16000400000810000009000800004B
:10145000000000000015000000000200000F000066
:101460000A18000500000A1200000A000A00000025
:101470000000000000000E00000616130400000823
:101480001000000900080000000000000015000026
:101490000000020000001000000000000000191809
:1014A0000008000000070000130000000006001004
:1014B00007000000000002191600080000000700E5
:1014C0000813000000050A0A0A000200000A0000D2
:1014D000000A000A000018000000000F110A0000B6
:1014E00000000000000009000000060007000017CF
:1014F000000000020D1108000000000000050000BF
:10150000000002000000000000000700000D0000C5
:10151000190A001500000A00000000000000000089
:101520000000060700000D0000190700140016084F
:101530000000010000050A1800000105000000007D
:1015400000001700000014000000000000000B0065
:1015500000000C000211070000000017000000143A
:10156000000700000009000B0000000C000A0A0A36
:101570001200020000030000000000000F000E0037
:10158000000000000D00000000000000000003004B
:1015900000000011110B000E00000000090D0800F2
:1015A00000000000000A0A12120003000000000FF1
:1015B000000000000000170000000F1912000000DA
:1015C000000A000F001311000B00000000000017BC
:1015D0000000000D19100000000109000B05151294
:1015E00000000300000000000002001300000000E3
:1015F0000000000C000000000D00000000000009C9
:101600000000021113000006100000000C00000092
:10161000000D0800000A0A0A121203000D000A0059
:10162000000000000000000015000000001800008D
:101630000A000000000D0007000000000000000686
:1016400000130400000017000009000800050A0A42
:10165000000001000F0A0000001900000000000057
:101660000A00000A0600000000000000000D07004C
:101670000000191700000211100600000906000002
:101680000000000000051212180003000F0A0000FD
:1016900000190000000000000A00000A0700000016
:1016A00000000000000E09000000191700000010E3
:1016B00010060000090700000000010000051212DA
:1016C000180003000000000F0000000000001600DA
:1016D00000000F1912000000000A000F00000000B7
:1016E0000E000000000002161100130D191000007A
:1016F000000009000B0515120000030000000003A4
:10170000190E0000000013000000000C0000000093
:10171000000000000900000003190E000000101373
:10172000000010000C00000009000000080A0A0A6E
:101730001212030000000000001200000A00000066
:10174000000400001200000000000000000900007A
:101750000000100000060000060004000910000050
:1017600000000700000A0A0A0A00030F0000000038
:101770000000000000000000160000110F00000033
:101780000000190F0E00000000000000000009100A
:1017900000160400110B0000000900190B050A0ACD
:1017A00012000300000300000000000F0000000012
:1017B0000000000C000F00140000000000000300F7
:1017C000000611000B000000000000000C110B00CF
:1017D00014000800000A0A121200030000000000B2
:1017E000000012000A0000000004000000000000D9
:1017F00012000000000000000000061100060009B1
:10180000000004000000000008110800000A0A0A95
:101810000A00030000000F00000000000019000B88
:101820000000001800000F14000500000611000B56
:1018300000000000000019090B0000101600000B4A
:1018400014000400000A0A12120003001200000A29
:10185000000000150000000E0000000C0000000059
:1018600000000A0002110000060011001400000030
:101870000E0000000C0000000000090800050A121C
:1018800000000300000000000005000A0000000A3C
:101890000000000A00000A00000A15000000000015
:1018A00000000300090000110717000009000006EE
:1018B0000000091300121800000002000F000000D1
:1018C0000000000005001800000000000F000000EC
:1018D000000C0000000E00000006001000040017BD
:1018E00000000009100C000000000C00000A0A12A1
:1018F0001200031900060000001800000000080094
:101900001500000000000A0500000000190606008E
:101910000000170000000608001400100000100668
:1019200001000000000A0A1212000300000000007B
:10193000000018000009000000000A00050000096E
:101940000000001300000000000006160007090058
:10195000000000091104000009000000130A0A1227
:1019600000000200000000000A001912000F00151C
:101970000000000100180000000000000006110730
:101980000008001910000D001300000001001700EE
:1019900000000007000A0A0A1200030000000B0002
:1019A00009000000000019180000000000000C00F1
:1019B000150000000211000B0009000000001019C2
:1019C000160007000000000C0913000000050A0AB9
:1019D00012120300FF06015300C00000B0076400AC
:1019E00090396400C10000B107640091536400C2E3
:1019F0000000B207640092546461902D640E396453
:101A000000914F64009254640E53641B58642AC0C2
:101A10000000B0076400C10000B1076400C200000C
:101A2000B20764009253640E902D640E3E640091E0
:101A3000516400925864454C640E51640E58640E13
:101A40009040640091536400925664389156641C2F
:101A5000C00000B0076400C10000B1076400C2000C
:101A600000B207641B903E64009151640092586478
:101A7000709040640091546400925D64145B64153E
:101A800059640E58641CC00000B0076400C1000017
:101A9000B1076400C20000B20764009254641C9055
:101AA0003E640091476400925D646F904C640092C4
:101AB0005C6453C00000B0076400C10000B107645B
:101AC00000C20000B207641C904C6400C00000B06B
:101AD00007640091476400C10000B1076400C200C0
:101AE00000B2076400925C640491456400925A64F9
:101AF00003914464009257640491426400925464D8
:101B0000039140640092506404913D6400924C64DF
:101B100003913B64009245640790396400915164DD
:101B2000009254640790396407396400915164004D
:101B30009254640790396400914F64009253640793
:101B4000903964073964009151640092546407909D
:101B5000396407396400914F6400925364079039E7
:101B600064073964009151640092546407903964A9
:101B700007396400914F64009253640790396406FA
:101B80003964009151640092546407903764009165
:101B90004F640092536407903964073E640091518A
:101BA000640092546407903E64073E64009151645F
:101BB0000092546407903E6400914F640092536415
:101BC00007903E64073E640091516400925464079C
:101BD000903E64073E6400914F6400925364079006
:101BE0003E64073E64009151640092546407903E45
:101BF00064073E6400914F640092536407C0000084
:101C0000B0076400903E6400C10000B1076400C2E8
:101C10000000B2076407903E640091516400925442
:101C20006407903E64009154640092586407903EAB
:101C300064073764009153640092566406903764D9
:101C4000073764009153640092566407903764002C
:101C5000915164009254640790376407376400918F
:101C600053640092566407903764073764009151BB
:101C7000640092546407903764073764009153649A
:101C800000925664079037640737640091516400EE
:101C9000925464079037640737640091536400924C
:101CA00056640790376400914F6400925364079024
:101CB0003764073964009151640092546407903985
:101CC0006407396400915164009254640790396448
:101CD00000914F640092536407903964073964009F
:101CE00091516400925464069039640739640091FC
:101CF0004F64009253640790356407356400915136
:101D000064009254640790356407356400914F6411
:101D1000009253640790376400C00000B00764006D
:101D2000C10000B1076400C20000B207640790431D
:101D30006400915164009254640790376400914F9D
:101D400064009253640790436407396400915464BB
:101D500000924C6407914C6407903964009153647D
:101D600000924C64074C64079039640091516407F9
:101D7000924C640790396400914F6407516400925B
:101D80004C6407903964079151640092586406903E
:101D900034640739640E346407396407914C64076E
:101DA000903E640091546400924C6407914C640727
:101DB000903E640091536400924C64074C64079019
:101DC0003E640091516407924C6407903E64009118
:101DD0004F6407516400924C6407903E6407925828
:101DE0006407903964073E6407C00000B0076400D0
:101DF000C10000B1076400C20000B2076407903957
:101E000064073E6406914C64079037640091566401
:101E100000924F6407914C640790376400915464BA
:101E200000924F640791536400924F6407903764A7
:101E300007924F640790376407914C6400924F6497
:101E40000790376400915664074C6400924F640712
:101E50009032640091546407903764009153640099
:101E6000924F640E90326400924F64079037640082
:101E7000924F6407914C6407903964009154640058
:101E8000924C6407914C640790396400915364004C
:101E9000924C64074C640690396400915164079237
:101EA0004C640790396400914F6407516400924C70
:101EB000640790356407925B641590376400C00036
:101EC00000B007640091516400C10000B1076400D4
:101ED000C20000B2076400925D640E9037640791FF
:101EE0004C64079039640091546400924C640791EB
:101EF0004C64079039640091536400924C64074C21
:101F000064079039640091516407924C64079039DA
:101F10006400914F6407516400924C6406903964E8
:101F20000791516400925464079034640739640740
:101F300091516400925464079034640739640791A6
:101F40004C6407903E640091546400924C64079185
:101F50004C6407903E640091536400924C64074CBB
:101F60006407903E640091516407924C6407903E70
:101F70006400914F6407516400924C6407903E6482
:101F8000079151640092546407903964073E6407D6
:101F9000C00000B0076400C10000B10764009151A7
:101FA000640092546400C20000B207640690396471
:101FB000073E6407914C64079037640091566400B3
:101FC000924F6407914C6407903764009154640009
:101FD000924F640791536400924F640790376407EF
:101FE000924F640790376407914C6400924F6407E6
:101FF00090376400915664074C6400924F640790D8
:1020000032640091546407903764009153640092E5
:102010004F640E90326400924F64079037640092D0
:102020004F6407914C6407903964009154640092A6
:102030004C6406914C64079039640091536400929B
:102040004C64074C64079039640091516407924CCA
:10205000640790396400914F6407516400924C64A6
:102060000790356407925B641590376400C00000E8
:10207000B007640091516400C10000B1076400C260
:102080000000B2076400925D640E9037640E3964FC
:102090000091546400924C640E9039640091536432
:1020A00000924C640791516400924C64079039642B
:1020B00007914F6400924C640690396407914F6415
:1020C00000924C64079039640791516400924C640B
:1020D0000790346407396400914F6400924C6404A3
:1020E0009151640351640451640390346400924C30
:1020F00064079039640091546400924C64079154D1
:102100006407903E640091546400924D640E903ECA
:10211000640091536400924D640791516400924DA4
:102120006407903E6407914F6400924D6407903EAF
:102130006407914F6400924D640391516404903E92
:10214000640091516403516404516400924D64062B
:10215000903964073E6400924D6407C00000B007E8
:102160006400C10000B1076400C20000B207640748
:1021700090396400924D6407903E6400914F640072
:10218000924D640E9037640091566400924F640E35
:102190009037640091546400924F64079153640037
:1021A000924F640790376407914F6400924F640721
:1021B0009037640791566400924F64079037640724
:1021C00091546400924F6407903264073764009121
:1021D000536400924F640E90326400924F640790F3
:1021E000376400914F6400924F6406914C640790ED
:1021F00039640091516400924C64079151640790D6
:10220000396400914F6400924C64079151640092CC
:102210004C64079039640791546400924C640790B1
:10222000396400924C6407914F6404516403903503
:1022300064009151640092416404915164035164BB
:1022400007903564009241640E90376400C000002E
:10225000B0076400C10000B107640092436400C28B
:102260000000B207640E90376400915364009243FB
:10227000640E90396400915464009258640E903951
:102280006400915364009256640791516400925423
:10229000640690396407914F640092536407903943
:1022A0006407914F64009253640491516400925406
:1022B0006403903964009151640092546404915114
:1022C0006400925464039151640092546407903402
:1022D0006407396400924C640E90346400924C643C
:1022E000079039640091546400924C640E903E64EF
:1022F0000091546400924D640E903E6400915364CA
:1023000000924D640791516400924D6407903E64C1
:1023100007914F6400924D6407903E6407914F64AB
:1023200000924D640391516403903E6400915164A6
:1023300004516403516400924D6407903964073E70
:102340006400924D6407C00000B0076400C1000043
:10235000B1076400C20000B20764079039640092BC
:102360004D6407903E6400924D640E903764009176
:10237000566400924F640E9037640091546400924A
:102380004F640791536400924F640790376407923B
:102390004F640790376407924F6407903764009149
:1023A000566407924F64079032640091546407901A
:1023B00037640091536400924F640D903264009230
:1023C0004F640790376400924F640E903964009117
:1023D0005164009258640E90396400914F640092E9
:1023E00056640791516400925864079039640791CC
:1023F000546400925B640790396407914F640092C3
:1024000056640391516400925764049035640091BE
:10241000516400925864039151640092586404918D
:10242000516400925B64079035640E376400C0000D
:1024300000B007640091516400C10000B10764005E
:10244000C20000B2076400925D640E9037640E39DA
:102450006400915864009245640D9039640091566F
:102460006400924564079155640790396400924571
:10247000640791516407903964009245640791584C
:102480006400924564079039640092456407915650
:102490006407903464009245640790396400915455
:1024A00064009245640E903464009245640790394C
:1024B00064009245640E9034640091576400925316
:1024C00064039158640458640358640490346400AD
:1024D00091586407586400925364079034640791DC
:1024E0005A640092536406903464079158640092D1
:1024F00053640790346407925364079034640791DF
:102500005064009253640790346400C00000B00728
:10251000640091506400C10000B1076400925364EC
:1025200000C20000B207640E903464009150640051
:10253000925364079150640092536407903564008D
:1025400091546400924D64074D6407903564009285
:102550004D64074D640790376400C00000B0076405
:1025600000C10000B107640091566400924F6400FE
:10257000C20000B2076407924F640790376400926C
:102580004F64074F6407903C640091586400926068
:10259000640E903C640091566406546400924F644B
:1025A00007903C6407924F6407903C6400924F642C
:1025B0000E903C640091586400924F640E90376412
:1025C0000091566400924F6407903C6400915464FB
:1025D00000924F640E9037640091566400924F64ED
:1025E0000391576404903C640091586400924F64D6
:1025F000039158640458640358640490376400914C
:10260000566400924F640E903764009156640092B5
:102610004F640791566400924F64079037640791A6
:10262000566400926064039157640490376400918B
:102630005864035864035864045864039037640072
:1026400091566400925F640E90326400925D64075C
:1026500090376407C00000B0076400C10000B107F4
:102660006400C20000B2076400925B6407903264A9
:102670000737640E3E640091596400925D640E90C9
:102680003E640091586400925B6407915664009226
:10269000596407903E640E3E640091566400924D6A
:1026A000640E903E640091596400925D640E90390E
:1026B000640091586400925B6407903E64009156F8
:1026C00064009259640D903964009158640459640F
:1026D00003903E6400915964045964035964045999
:1026E0006403903964009158640E903964009251EB
:1026F0006407915464009251640790396407925DB5
:10270000640790396400925D640E903564009154C2
:1027100064009260640E903564009260640E90379D
:102720006400C00000B0076400C10000B10764008D
:1027300091566400925B6400C20000B20764079285
:102740006064079037640D3C6400915864009260A7
:10275000640E903C640091566407546400924F6488
:1027600007903C6407924F6407903C6400924F646A
:102770000E903C640091586400924F640E90376450
:102780000091566400924F6407903C640091546439
:1027900000924F640E9037640091566400924F642B
:1027A0000391576404903C640091586400924F6414
:1027B000039158640458640358640490376400918A
:1027C000566400924F640E903764009156640092F4
:1027D0004F640791566400924F64079037640691E6
:1027E00056640092606404915764039037640091CA
:1027F00058640458640358640458640390376400B0
:1028000091566400925F640E90326400925D64079A
:1028100090376407C00000B0076400C10000B10732
:102820006400925B6400C20000B2076407903264E7
:102830000737640E3E640091596400925D640E9007
:102840003E640091586400925B6407915664009264
:10285000596407903E640E3E640091566400924DA8
:10286000640E903E640091596400925D640D90394D
:10287000640091586400925B6407903E6400915636
:1028800064009259640E903964009158640459644C
:1028900003903E64009159640459640359640459D7
:1028A0006403903964009158640E90396400924832
:1028B000640751640790396407925D640790396436
:1028C0000091486400925D640E90356400926064EB
:1028D0000E903564009148640092606407914864EA
:1028E0000790376400C00000B0076400C10000B169
:1028F000076400925B6400C20000B207640D903769
:102900006400914A64074A640790356400915464F6
:10291000009241640751640790356400915464004B
:1029200092416407915464009251640790356400A9
:102930009241640791546400925164079035640099
:102940009241640791546400925164079035640089
:102950009241640791516400925164079030640081
:102960009241640790356400914D64009241640780
:10297000914D640092516407903064073564009172
:102980004D640092416407914D6400925164079038
:1029900037640091566400924364074F6407903790
:1029A0006400915664009243640691566400924F0D
:1029B0006407903764009243640791566400924F15
:1029C0006407903764009243640791566400924F05
:1029D0006407903764009243640791536400924FF8
:1029E00064049151640390326400914F6400924FEB
:1029F00064079037640092436407C00000B0076426
:102A00000091516400C10000B1076400924F64005E
:102A1000C20000B207640790326400924F640790CE
:102A2000376400914F6400924364074F6407903904
:102A300064009151640092456407486407903964CA
:102A4000009254640745640790396400914F640014
:102A50009248640391516404516400925464039158
:102A60005164049039640092456406914F64009269
:102A7000456404915164039035640091516400925F
:102A800058640491516403516404516403903564A3
:102A90000E376400C00000B0076400914F6400C1AD
:102AA0000000B1076400C20000B2076400925664DF
:102AB0000E9037640E3564009154640092416407AF
:102AC0005164079035640091546400924164079109
:102AD00054640092516407903564009241640791F8
:102AE00054640092516407903564009241640791E8
:102AF00054640092516407903564009241640791D8
:102B000051640092516407903064009241640790D0
:102B1000356400914D640092416406914D640092C9
:102B200051640790306407356400914D6400924110
:102B30006407914D64009251640790376400915688
:102B40006400924364074F640790376400915664B1
:102B5000009243640791566400924F640790376473
:102B6000009243640791566400924F640790376463
:102B7000009243640791566400924F640790376453
:102B8000009243640791536400924F64039151642F
:102B90000490326400914F6400924F640790376450
:102BA0000092436407C00000B007640091536400C2
:102BB000C10000B1076400924F6400C20000B20778
:102BC000640790326400924F640790376400915616
:102BD0006400924364074F64069034640091586423
:102BE0000092406407446407903464009250640784
:102BF00040640790346400915664009244640491E8
:102C000057640358640092506404915864039034EC
:102C100064009240640791566400924464049157A2
:102C2000640390346400915864009258640491588D
:102C300064035864045864039034640E346400C020
:102C40000000B0076400915C6400C10000B107643B
:102C500000C20000B20764009258640E9034640E03
:102C60003C640091586400925B64075B6407903C8D
:102C7000640091566400925964079154640092581C
:102C80006407903C640691546400924F6407903C42
:102C90006400924F6407905464073C640091586448
:102CA00000925B64075B6407903764009156640090
:102CB00092596407903C6400915464009258640EE9
:102CC0009037640091566400924F640491576403F6
:102CD000903C640091586400924F640491586403DE
:102CE0005864035864049037640091566400924F0E
:102CF000640E9037640091566400924F64079156B9
:102D00006400924F640790376407915664035764D8
:102D1000049037640091586400925364039158649E
:102D2000045864009253640391586404903764001B
:102D30009156640D9032640091536400925664077A
:102D4000903764009153640092566407C00000B04D
:102D5000076400C10000B1076400C20000B207644C
:102D600007903264073764009153640092566407F9
:102D70009153640092566407903E64009159640038
:102D8000925D640E903E640091586400925B64070B
:102D90009156640092596407903E640E3E6400911F
:102DA000566400924D6407914D64009256640790FA
:102DB0003E640091596400925D640E903964009104
:102DC000586400925B6407903E64009156640092E0
:102DD00059640E9039640091586403596403903E1D
:102DE000640091596404596403596404596403905C
:102DF0003964009158640E90396400925D640791C3
:102E00005464079039640791546400925D6407909C
:102E100039640091546400925D640E9035640091B1
:102E2000516400925D64039154640B903564009288
:102E30004D64074D640790376400C00000B007641C
:102E400000C10000B107640091566400C20000B2E6
:102E500007640E90376400924F64074F6407903CFC
:102E6000640091586400925B640E903C640091563B
:102E70006400925964069154640092586407903C2F
:102E8000640791546400924F6407903C6400924F31
:102E90006407905464073C640091586400925B643A
:102EA0000E903764009156640092596407903C6418
:102EB00000915464009258640E90376400915664F7
:102EC00000924F640391576404903C6400915864ED
:102ED00000924F640391586404586403586404904A
:102EE00037640091566400924F640E9037640091ED
:102EF000566400924F640791566400924F640790A5
:102F000037640791566403576404903764009158FE
:102F100064009253640391586403586400925364AC
:102F20000491586403903764009156640E903264A3
:102F30000091536400925664079037640091536483
:102F40000092566407C00000B0076400C10000B1E1
:102F5000076400C20000B207640790326407376458
:102F60000091536400925664079153640092566432
:102F700007903E640091596400925D640E903E6437
:102F80000091586400925B64079156640092596402
:102F900007903E640E3E640091566400924D6407B3
:102FA000914D640092566407903E6400915964000C
:102FB000925D640E9039640091586400925B6407DE
:102FC000903E6400915664009259640D90396400FB
:102FD00091586404596403903E6400915964045903
:102FE0006403596404596403903964009158640E71
:102FF00090396407915164009254640790396400D9
:10300000915164009248640E90396400914C6400C0
:103010009254640E90356400915164009254640798
:10302000914D6400924864079035640091516400AA
:10303000925464079151640092546407903764007D
:10304000C00000B0076400C10000B1076400C20006
:1030500000B2076407914F6400924A640790376496
:103060000091536400925664079153640092566431
:1030700007903564009154640092416406516407DE
:103080009035640091546400924164079154640047
:103090009251640790356400924164079154640032
:1030A0009251640790356400924164079154640022
:1030B0009251640790356400924164079151640015
:1030C0009251640790306400924164079035640027
:1030D000914D640092416407914D640092516407E0
:1030E00090306407356400914D640092416407910B
:1030F0004D640092516407903764009156640092C9
:103100004364074F6407903764009156640092430C
:10311000640791566400924F6407903764009243AD
:10312000640691566400924F64079037640092439E
:10313000640791566400924F64079037640092438D
:10314000640791536400924F640491516403903278
:103150006400914F6400924F64079037640092437B
:103160006407C00000B007640091516400C1000012
:10317000B1076400924F6400C20000B20764079078
:10318000326400924F640790376400914F6400925C
:103190004364074F6407903964009151640092457D
:1031A00064074864079039640092546407456407D3
:1031B00090396400914F6400924864039151640413
:1031C00051640092546403915164049039640092F4
:1031D000456407914F6400924564039151640490E3
:1031E0003564009151640092586403915164045114
:1031F00064035164039035640E376400C00000B06E
:10320000076400914F6400C10000B1076400C20070
:1032100000B20764009256640E9037640E35640065
:1032200091546400924164075164079035640091A1
:103230005464009241640791546400925164079071
:103240003564009241640791546400925164079080
:103250003564009241640791546400925164079070
:103260003564009241640791516400925164079063
:103270003064009241640790356400914D6400927F
:10328000416407914D6400925164079030640635A3
:103290006400914D640092416407914D6400925125
:1032A00064079037640091566400924364074F644A
:1032B0000790376400915664009243640791566406
:1032C00000924F64079037640092436407915664FC
:1032D00000924F64079037640092436407915664EC
:1032E00000924F64079037640092436407915364DF
:1032F00000924F64039151640490326400914F64D2
:1033000000924F64079037640092436407C0000046
:10331000B007640091536400C10000B107640092DB
:103320004F6400C20000B207640790326400924FFD
:1033300064079037640091566400924364074F64B9
:103340000790346400915864009240640744640715
:103350009034640092506406406407903464009195
:103360005664009244640491576403586400925078
:103370006404915864039034640092406407915649
:10338000640092446404915764039040640091582F
:1033900064045864035864045864039040640091C2
:1033A00058640E90406400C00000B0076400C10083
:1033B00000B1076400C20000B207640E9040640EC2
:1033C0003964009154640092586407914C640790EA
:1033D00039640091536407925864079039640091EE
:1033E0005164009258640758640790396400914F03
:1033F0006406516400924C64079039640E34640092
:1034000091516400925464079039640091516400B2
:103410009254640E90346407396407914C640790A9
:103420003E640091546400924C6407914C64079090
:103430003E640091536400924C64074C6407903ED4
:10344000640091516407924C6407903E6400914F70
:103450006407516400924C6407903E640E39640026
:103460009154640092586407903E64009154640043
:1034700092586406C00000B0076400C10000B107A4
:103480006400C20000B2076407903964073E640715
:10349000914C64079037640091566400924F640722
:1034A000914C64079037640091546400924F640714
:1034B00091536400924F640790376407924F6407FA
:1034C00090376407914C6400924F64079037640012
:1034D000915664074C6400924F64079032640091E7
:1034E0005464079037640091536400924F640E90C7
:1034F000326400924F640790376400924F640791E2
:103500004C64079039640091546400924C640691B5
:103510004C64079039640091536400924C64074CEA
:1035200064079039640091516407924C64079039A4
:103530006400914F6407516400924C6407903564B5
:1035400007925B641590376400C00000B007640008
:1035500091516400C10000B1076400C20000B207CD
:103560006400925D640E90376407914C6407903953
:10357000640091546400924C640E9039640091533D
:103580006400924C640791516400924C6407903936
:103590006406914F6400924C640790396407914F20
:1035A0006400924C64079039640791516400924C16
:1035B000640790346407396400914F6400924C644E
:1035C0000491516403516404516403903464009283
:1035D0004C64079039640091546400924C640791E4
:1035E000546407903E640091546400924D640E90C0
:1035F0003E640091536400924D64079151640092BF
:103600004D6407903E6407914F6400924D640790AB
:103610003E6407914F6400924D640391516404909D
:103620003E640091516403516404516400924D64FE
:1036300006903964073E6400924D6407C00000B0F4
:10364000076400C10000B1076400C20000B2076453
:103650000790396400924D6407903E6400914F6476
:1036600000924D640E9037640091566400924F644E
:103670000E9037640091546400924F640791536434
:1036800000924F640790376407914F6400924F6433
:10369000079037640791566400924F64079037642F
:1036A0000791546400924F640790326407376400B6
:1036B00091536400924F640E90326400924F6406FE
:1036C00090376400914F6400924F6407914C6407F7
:1036D0009039640091516400924C640791516407E1
:1036E00090396400914F6400924C640791516400DA
:1036F000924C64079039640791546400924C6407BB
:1037000090396400924C6407914F640451640390B3
:1037100035640091516400924164039151640451F5
:103720006400925B64079035640E376400C000004B
:10373000B0076400C10000B1076400925B6400C27E
:103740000000B207640E9037640091536400925BEE
:1037500064075D6407903964009154640092586472
:103760000E9039640091536400925664069151643E
:10377000009254640790396407914F640092536437
:103780000790396407914F64009253640491516427
:10379000009254640390396400915164009254641F
:1037A00004915164009254640391516400925464F2
:1037B0000790346407396400924C640E90346400BE
:1037C000924C64079039640091546400924C640EEA
:1037D000903E640091546400924D640E903E6400EB
:1037E00091536400924D640791516400924D6407B7
:1037F000903E6407914F6400924D6407903E6407C9
:10380000914F6400924D640391516403903E6400B3
:1038100091516404516403516400924D64079039DE
:1038200064073E6400924D6407C00000B007640066
:10383000C10000B1076400C20000B20764079039FC
:103840006400924D6407903E6400924D640E903780
:10385000640091566400924F640E90376400915456
:103860006400924F640791536400924F640790374D
:103870006407914F6400924F640790376407915634
:103880006400924F64079037640791546400924F2C
:1038900064079032640737640091536400924F6468
:1038A0000D90326400924F640790376400914F642A
:1038B00000924F6407914C64079039640091516401
:1038C00000924C64079151640790396400914F64F1
:1038D00000924C640791516400924C6407903964E3
:1038E0000791546400924C640790396400924C64D0
:1038F00007914F6403516404903564009151640052
:103900009241640391516404516400925B64079096
:1039100035640E376400C00000B0076400C10000C9
:10392000B1076400925B6400C20000B207640E90AD
:10393000376400925B64075D6407903964009158B6
:1039400064009245640D903964009156640092457C
:10395000640791556407903964009245640791515A
:103960006407903964009245640791586400924559
:103970006407903964009245640791566407903457
:103980006400924564079039640091546400924544
:10399000640E903464009245640790396400924547
:1039A000640E9034640091576400925364039158FC
:1039B00064045864035864049034640091586407A4
:1039C0005864009253640790346406915A640092DC
:1039D00053640790346407915864009253640790CD
:1039E00034640792536407903464079150640092E2
:1039F00053640790346400C00000B0076400915025
:103A00006400C10000B107640092536400C200006A
:103A1000B207640E903464009150640092536407BE
:103A2000915064009253640790356400915464008F
:103A3000924D64074D640790356400924D64074DC4
:103A4000640790376400C00000B0076400C1000044
:103A5000B107640091566400C20000B2076400928E
:103A60004F64074F640790376400924F64074F64B8
:103A700007903C640091586400925B64075B6406A5
:103A8000903C64009156640092596407915464001C
:103A900092586407903C640791546400924F640705
:103AA000903C6400924F6407905464073C6400911A
:103AB000586400925B64075B64079037640091561A
:103AC000640092596407903C6400915464009258D9
:103AD000640E9037640091566400924F64039157CE
:103AE0006404903C640091586400924F64039158C0
:103AF0006404586403586404903764009156640069
:103B0000924F640E9037640091566400924F6407A0
:103B100091566400924F640790376407915664038E
:103B20005764049037640091586400925364039181
:103B300058640358640092536404915864039037A6
:103B400064009156640E9032640091536400925662
:103B50006407903764009153640092566407C00074
:103B600000B0076400C10000B1076400C20000B2E9
:103B700007640790326407376400915364009256DB
:103B800064079153640092566407903E6400915913
:103B90006400925D640E903E640091586400925BF4
:103BA00064079156640092596407903E640E3E6427
:103BB0000091566400924D6407914D6400925664E2
:103BC00007903E640091596400925D640E903964E0
:103BD0000091586400925B6406903E6400915664C4
:103BE000009259640E90396400915864045964033A
:103BF000903E640091596404596403596404596403
:103C000003903964009158640E90396400925D64A9
:103C100007915464079039640791546400925D647D
:103C2000079039640091546400925D640E9035648D
:103C30000091516400925D64039154640B9035646B
:103C400000924D64074D6407C00000B00764009007
:103C5000376400C10000B107640091566400C200DF
:103C600000B207640E90376400924F64074F6406F9
:103C7000903C640091586400925B640E903C640038
:103C800091566400925964079154640092586407F5
:103C9000903C640791546400924F6407903C640028
:103CA000924F6407905464073C64009158640092FA
:103CB0005B640E90376400915664009259640790DB
:103CC0003C6400915464009258640E9037640091F3
:103CD000566400924F640391576404903C640091D1
:103CE000586400924F640391586404586403586404
:103CF000049037640091566400924F640E903764CC
:103D00000091566400924F640791566400924F648C
:103D10000690376407915664045764039037640033
:103D2000915864009253640491586403586400925B
:103D300053640491586403903764009156640E9064
:103D40003264009153640092566407903764009186
:103D500053640092566407C00000B0076400C100BD
:103D600000B1076400C20000B20764079032640724
:103D70003764009153640092566407915364009233
:103D8000566407903E640091596400925D640E9001
:103D90003E640091586400925B64079156640092FF
:103DA000596407903E640E3E640091566400924D43
:103DB0006407914D640092566407903E64009159E7
:103DC0006400925D640D9039640091586400925BC8
:103DD0006407903E6400915664009259640E9039D5
:103DE000640091586404596403903E6400915964DE
:103DF0000459640359640459640390396400915868
:103E0000640E9039640791516400925464079039AC
:103E10006400915164009248640E90396400914CA2
:103E200064009254640E9035640091516400925481
:103E30006407914D64009248640790356400915185
:103E40006400925464079151640092546407C00066
:103E500000B007640090376400C10000B10764003F
:103E6000C20000B2076406914F6400924A64079052
:103E70003764009153640092566407915364009232
:103E8000566407903C640091586400925B64075B41
:103E90006407903C64009156640092596407915401
:103EA000640092586407903C640791546400924FF8
:103EB0006407903C6400924F6407905464073C642C
:103EC0000091586400925B64075B6407903764005C
:103ED0009156640092596407903C640091546400C8
:103EE0009258640E9037640091566400924F6403B8
:103EF00091576404903C640091586400924F6403AD
:103F000091586404586403586404903764009156CF
:103F10006400924F640D9037640091566400924F94
:103F2000640791566400924F640790376407915676
:103F3000640457640390376400915864009253649A
:103F400004915864035864009253640491586403C4
:103F5000903764009156640E90326400915364006F
:103F60009256640790376400915364009256640738
:103F7000C00000B0076400C10000B1076400C200C7
:103F800000B20764079032640737640091536400FD
:103F9000925664079153640092566407903E640001
:103FA00091596400925D640E903E640091586400E3
:103FB000925B64079156640092596407903E640EC8
:103FC0003E640091566400924D640D903E640091F1
:103FD000596400925D640E903964009158640092B7
:103FE0005B6407903E6400915664009259640E90A1
:103FF00039640091586404596403903E64009159F7
:104000006404596403596404596403903964009149
:1040100058640E9039640092516407915464009280
:1040200051640790396407925D6407903964009287
:104030005D640E90356400915464009260640E904B
:104040003564009260640D90376400C00000B007D2
:104050006400C10000B107640091566400925B6483
:1040600000C20000B2076407926064079037640ED4
:104070003C640091586400925B640E903C64009133
:1040800056640092596407915464009258640790F2
:104090003C640791546400924F6407903C64009222
:1040A0004F6407905464073C640091586400925B2D
:1040B000640E903764009156640092596407903CF6
:1040C0006400915464009258640E903764009156D5
:1040D0006400924F640391576404903C64009158CB
:1040E0006400924F64039158640458640358640355
:1040F0009037640091566400924F640E90376400CC
:1041000091566400924F640791566400924F640781
:1041100090376407915664045764039037640091A4
:104120005864009253640491586403586400925395
:10413000640491586403903764009156640E903281
:104140006400915364009256640790376400915361
:10415000640092566407C00000B0076400C100000C
:10416000B1076400C20000B20764079032640737E9
:104170006400915364009256640791536400925610
:104180006407903E640091596400925D640E903E15
:10419000640091586400925B6407915664009259E0
:1041A0006406903E640E3E640091566400924D6435
:1041B00007914D640092566407903E6400915964E3
:1041C00000925D640E9039640091586400925B64C3
:1041D00007903E6400915664009259640E903964D1
:1041E0000091586404596403903E6400915964033B
:1041F0005964045964035964049039640091586403
:104200000E903964079151640092546407903964A8
:1042100000915164009248640E90396400914C649E
:10422000009254640E90356400915164009254647D
:1042300006914D6400924864079035640091516482
:10424000009254640791516400925464079037645B
:1042500000C00000B0076400C10000B1076400C2E4
:104260000000B2076407914F6400924A64079037D8
:10427000640091536400925664079153640092560F
:10428000640790356400915464009241640751645E
:10429000079035640091546400924164079154641E
:1042A0000092516407903564009241640791546410
:1042B0000092516407903564009241640791546400
:1042C00000925164079035640092416407915164F3
:1042D0000092516407903064009241640790356405
:1042E00000914D640092416407914D6400925164C5
:1042F0000790306406356400914D64009241640774
:10430000914D6400925164079037640091566400A7
:10431000924364074F64079037640091566400929B
:1043200043640791566400924F640790376400928B
:1043300043640791566400924F640790376400927B
:1043400043640791566400924F640790376400926B
:1043500043640791536400924F6403915164049045
:10436000326400914F6400924F640790376400926A
:10437000436407C00000B007640091516400C100AD
:1043800000B1076400924F6400C20000B2076407E6
:1043900090326400924F640790376400914F64003C
:1043A000924364074F64079039640091516400920E
:1043B0004564074864069039640092546407456474
:1043C0000790396400914F640092486404915164ED
:1043D0000351640092546404915164039039640061
:1043E00092456407914F64009245640491516403BF
:1043F00090356400915164009258640491516403B3
:104400005164045164039035640E376400C00000A9
:10441000B0076400914F6400C10000B1076400C29E
:104420000000B20764009256640E9037640E356443
:104430000091546400924164075164079035640010
:10444000915464009241640791546400925164074E
:10445000903564009241640791546400925164075E
:10446000903564009241640691546400925164074F
:104470009035640092416407915164009251640741
:10448000903064009241640790356400914D64005F
:1044900092416407914D6400925164079030640723
:1044A000356400914D640092416407914D6400921F
:1044B0005164079037640091566400924364074F3B
:1044C00064079037640091566400924364079156E4
:1044D0006400924F640790376400924364079156DA
:1044E0006400924F640790376400924364079156CA
:1044F0006400924F640790376400924364079153BD
:104500006400924F64039151640490326400914FAF
:104510006400924F64069037640092436407C000C1
:1045200000B007640091536400C10000B10764004B
:10453000924F6400C20000B2076407903264009298
:104540004F64079037640091566400924364074FAC
:104550006407903464009158640092406407446496
:1045600007903464009250640740640790346400FC
:104570009156640092446404915764035864009215
:10458000506403915864049034640092406407912D
:10459000566400924464039157640490406400910F
:1045A000586400925D64039158640458640358642D
:1045B000049040640091586407925F6407904064DF
:1045C00000C00000B0076400C10000B1076400C271
:1045D0000000B207640E90406400925D640D903953
:1045E00064009158640092606407915864079039A0
:1045F00064009158640758640790396407915864BF
:1046000000924C6407903964009254640791586496
:10461000079039640092536407915864079034649A
:1046200000925164079039640091586407924F6476
:104630000790346400915864009251640790396483
:10464000009158640E903E6400914C6400924A645C
:104650000E903E6400914C6400924A6407914C6451
:1046600006903E6400924A6407914C6400924A644A
:1046700007903E6407914C640092486407903E6442
:1046800007914C6407903964073E6400914C6407BD
:10469000C00000B0076400C10000B1076407903992
:1046A0006400914C6407903E6400914C6400C20029
:1046B00000B207640E903764009156640E90376420
:1046C00000915664009256640791546400925664B7
:1046D00007903764009254640791566400925464C2
:1046E00007903764009251640791546400925164BA
:1046F0000790376400924F640691566400924F64AD
:104700000790326400924A640790376400915464C1
:1047100000924A640748640790326400915664002E
:10472000924864079037640091536400924A64078A
:104730004A64079039640091456400924B64079184
:10474000486400924F640790396400914864009275
:104750004B640791456400924A6407903964009164
:104760005B640092486407915B6407903964009130
:104770005B64075D64079035640791546407903566
:1047800064009262640791536400926264079037F8
:104790006400C00000B0076400C10000B1076400FD
:1047A0009262640791546400C20000B207640092F0
:1047B00062640690376400915364009262640762F9
:1047C000640790396400916364075B6400926364DA
:1047D000079039640092636407636407903964004A
:1047E000915B64009264640764640790396400918B
:1047F0005B640092646407915B6400926464079058
:10480000396400915B64009256640E9034640091A8
:104810004F64079039640E346400914F64079039F7
:10482000640E3E6400915164075B64009256640616
:10483000903E640E3E6400915B64009256640E905C
:104840003E6400915B640092566407915B64009241
:10485000566407903E640791516400925464079037
:104860003964073E6400914F640092536407C000AE
:1048700000B0076400C10000B1076400C20000B2CC
:104880000764079039640091516400925464079062
:104890003E6400914F64009253640E90376400911F
:1048A0005164009254640E903764009156640092F3
:1048B00062640791566400926264079037640E3711
:1048C0006400914F6400925B6406914F6400925BB8
:1048D000640790376407915B6407903264009159D4
:1048E000640790376407915B6407903264009159C4
:1048F000640790376407915B64045D6403903964D6
:10490000079160640790396400915D640E9039648A
:1049100000915B64075764035664049039640791FF
:1049200054640790356400914F6400925B64079172
:10493000516407903564069151640790376400C054
:104940000000B0076400925D6407C10000B1076415
:1049500000C20000B207640790376400914F640EF4
:104960009039640791436400924A64079039640067
:104970009160640E9039640091436400924A640E21
:104980009039640E39640E34640091456400924A93
:104990006407903964079143640092486407903437
:1049A000640091456400924A640790396407914518
:1049B0006400924A6406903E640791456400924AFE
:1049C0006407903E640E3E64009143640092486424
:1049D00004914364009248640A903E6407914A64DB
:1049E00007903E6400915164075664079039640053
:1049F000914A6407903E640091516407C00000B082
:104A0000076400915B64079039640091516400C1B0
:104A10000000B1076400924A6400C20000B207645B
:104A200007903E6400914A64075B6400924A640701
:104A30009037640791516400925664079037640E72
:104A4000376400915164009256640D903764009170
:104A50005164009256640791516400925464079027
:104A600037640E32640737640E326400914F64007D
:104A7000925664079037640E396400914F64009237
:104A800056640E90396400914F64009257640E9002
:104A9000396400914F640092586407915164009208
:104AA0005864079039640E356406915B640790354D
:104AB0006400915C64075D640790376400C0000087
:104AC000B007640091606400C10000B10764079101
:104AD0005B64045D640390376400916364076264FF
:104AE0000790396400916064075B64045D6403901F
:104AF000396400915164075B640790396400914FF9
:104B00006407566400C20000B2076407903964006D
:104B1000914F64075164079039640791546400927F
:104B20004F64079034640739640791546400924FCE
:104B300064079034640639640E3E640E3E6400914E
:104B40005464009251640791536400924F6407903B
:104B50003E64079154640092516407903E6407914B
:104B6000536400924F6407903E640791646400921E
:104B700069640790396400915B64009264640790F3
:104B80003E64009162640092676407C00000B00751
:104B9000640091586400C10000B1076400C20000C5
:104BA000B20764009262640790396400915B64000C
:104BB00092646407903E64009156640092606407BA
:104BC00091586400925B64079037640091626400BE
:104BD000925D640791626400925D64069037640E92
:104BE00037640791626400925D64079037640791AF
:104BF000606400925D6404915F6400925B64039062
:104C000037640092596404915A6400925864039185
:104C10005264009256640491496400925464039073
:104C200032640091416400925364049132640092B2
:104C300051640390376400924F640E9032640737DA
:104C4000640E396407915D6400925864079039647A
:104C5000009158640092546407915B64009256641A
:104C6000079039640091566400925164079158642A
:104C700000925464079039640091546400924F6428
:104C800006915664009251640790356400914F6418
:104C900000924C640791516400924F640790356410
:104CA00000914C640092486407914F6400924A64FA
:104CB0000790376400C00000B0076400914B6400A7
:104CC000C10000B1076400C20000B2076407914A46
:104CD000640790376400914864074364079039641F
:104CE00000914564009251641CFF06014537FF2F77
:104CF00000000000274D000000000000003C4D00B7
:104D0000000000000000544D0000000002F06900A7
:104D100000FF01000202D7660000170318030266B5
:104D20004D00006F197019000200000ADE000980B2
:104D300000071C0400FE0002010EFF00000200003C
:104D40000ADE0009800007210400FF0200FE0002C5
:104D5000010EFF00000201000A01000940000734B3
:104D60001900FF0AFF00FF00FF00FF00FF00FF0027
:104D7000FFFFFFFC01010001FBFF04FE02FCFB063C
:104D8000FF0000F70404FE03F60006FD04F9FB082B
:104D9000FE02FEF60602FF02F7FF06FF03FBFA061D
:104DA0000002FEF803030002F9FE05FF03FBF9050C
:104DB000010200F702040103F7FD050104FAF805FA
:104DC0000102FFF604050001F6FE060003FAF907EA
:104DD0000201FFF502060002F8FB070101FDF804DD
:104DE000040000F8FF06FF00F9FA060302FFF803CB
:104DF000040001F7FE060102FAF9060201FCF604BE
:104E0000050001F7FE070002FAF9060200FFF701AC
:104E100005FF00F7FB080403FDF704040000F7FF9B
:104E2000060002FAF9060100FDF503060001F7FF8E
:104E3000080001FAF9060201FFF50103FF02F4FE82
:104E4000100802F8F204040100F60105FC00FAFD66
:104E50000800FEFBFA0703FE01F50209FEFFF9FF59
:104E6000050305FCF50403F801F2FC1D0F00E9F54C
:104E7000090102FDF8FE0800FEF90107F501FAF745
:104E80000D0903F7FD0A01FF03F7F30D0304FBF718
:104E9000FFF2080AE3FE330DF4F6F600FDFF01F021
:104EA0000202F40909FFF906FEF3020FFFFDF7FB0A
:104EB0001101F9F1F51D03F40EFDFAF30301FDDB19
:104EC000063901F8DD031FFBEB020402FC00FFFBC7
:104ED000FBFD0BF8F6EE1D0F00EBFD17FF03F1FCD9
:104EE0000309F507FEF1EF0C1005E5EC2D11FEF1BD
:104EF000F70A03E60205FFF60613F4FFFA05FBFDC9
:104F000001F9070BF3F90C01E7091AF807F4FFFDA3
:104F10000302F20206F3D82915ED1404FDFCF3F99F
:104F2000080800F3F90C03E708F4F71406FE020181
:104F3000F60AFB03F7001101E9FAF6031FFBF4047C
:104F4000FFE00C1511FBF709FDE7FA02FC1AF2F974
:104F50001104F400FC04FA0008FEF7EE02F7111148
:104F6000020704DFFD0E0102EA000CF1F512031145
:104F7000020303F6F2F70804F3F5100B04EDFC044A
:104F8000FF0404FC05F3EB0D050A060004FEE7012F
:104F9000050101ED00060602060609FDF7FBFDFB13
:104FA000F30402F705130900F7FCFFF503F9F8070E
:104FB000F8F4030C100D0301F2F606FDFBF7F4F90B
:104FC000FD050D0A0D06FCFEF9F9FFFFFEEEF109E5
:104FD000070F0BF9FE00FD02F6FF09F4F5F8FC14CB
:104FE0001000FFF60306FCFFF3F0FC020E100502B2
:104FF000FCFBFBF80306FEFBECF20A101804F5FDBF
:10500000FAFBFEFB0203F5F7F808180803FFF6FEAB
:10501000F8F906F7FBFA000A050C09FDFA01F60695
:1050200001F9F4F20400070D00F41003F9FD010387
:10503000F7FEF0F20E0EFB030301040305F3F40682
:10504000FBFF02F5010E0603F9FA08F6FEFBF20774
:10505000070BFEF101000B09FAF905F9F2FAFE0F50
:10506000FB090CF0FDFC0808F6FB0501F9FDFA123E
:10507000000200F9FBE80A0C03FA04FE04EFF9163B
:10508000010BF5F80EFCE4FF0607FD040EFFFAFB2A
:10509000010701F009FFFFE5F51B0D0601F5FAFD1B
:1050A000F808FFFB09FB0100D6141A0803F3FE08F9
:1050B000F0F602ED13081004ECE7071806F1FD0BFB
:1050C000FCFBEF000E0905F9E800EE0F18F10303F1
:1050D0000305EDF617020702EC00F4F512F0F808EC
:1050E0002219EDECF2060705F8FFFBED02080B0AAA
:1050F00007FCE5FEFEFD09FEFE070701F7F01506B9
:10510000FE0FE9F603FAFC00FFF7231BF3DDF010B6
:105110000009F70603FD06EB040E07F5EDF1F20BAF
:105120001C0BF60805FE04F3F6030508EFF704FC74
:105130000307FAE91F24FBEBECF1081802F9F8F772
:10514000FF08FB0308F9F7EF000F0411F40306F35F
:10515000FBFD00FD070806F2050AF0FA05E9002349
:1051600009E00001F20D0E03F60701FEF30306F15C
:10517000FFECE4180E0C07040AF70006F0ED13FB31
:1051800001F4EEFC190EF6F9F6220FF7FDEAEA0635
:105190000BFEFE07F61BFDED0BFC03F0EF0805FD13
:1051A0001200FC05F6FA13E9FF0BFE06EC0A0901F2
:1051B000F200EA0B23EA0107EEFB0D05FA060603EF
:1051C00000E800FF02FCE4FE1BFA051BF90402FEE6
:1051D00002E9F70DFD04EAE31528F3FEF20A25F3D0
:1051E00005F3F1F8FFF9F905011519EBF00A07F4D9
:1051F000F6FBF901F418020500F41503ECFF0B00AF
:10520000F3E5051505F7F10727EFF70CF7F4FC02B6
:10521000FD08060E05FEE2FD04FDF3F80805F80E94
:1052200011FC0CFB03F9F6F70FF6F7E0EF2E13FA7B
:10523000EE0C1CFBFAFDF2FFFC00E9FEFF181C025D
:10524000EAF009FB0200FBFAF3F91BFF00FC0A0F6E
:10525000F9F10E02F4F4E3091704F0150FF4EF105E
:10526000FEF501F9F6FC03180E07F7E105FFEFF86C
:1052700015FBF5F81613F70A08F903E4FA0DFAF12D
:10528000D9121E0BF51F09F7FCF700F6FBFEEE0026
:10529000F1033504FFEAF702FB0208F4F6F7011503
:1052A00005EF0B1401F3F20EFFF9EAEE0418F11BFF
:1052B00012F5F3F817FBF7FEF0F6FFFF1C0909F0F3
:1052C000F1F700F10F0CF1FFF5130FFB08010000DF
:1052D000E50900F7E5F6031500191BEE04F6FAFFE1
:1052E000FFF4FEF0F3F5251D02F8F2F3FD0806FACF
:1052F000F3FEEF0B11FEF81D05FDF1FA07FBFCF2C2
:10530000E00F060B29F4F7F311FEFDF602F7F3FCAC
:1053100007190700F5EDFEF4FE20F3FBF4010C0A7B
:10532000011002FAFCE806FDEDFFF8FEFF0C35FC6B
:10533000F9FD00F300F6F905EAF100290B03FDF68B
:10534000F6FF0800F9F6F6F6050EF5131DF701F263
:10535000FDFFF901ECF001022614EEEF0E08FFFB51
:10536000F008F0FBFE051406FEF5F0F8FE0D0EF158
:10537000FAFAFF070B0C050303FAE9FEF2FB0EF045
:10538000F3032021F9F607F9FB01EBFB01E9FE0C21
:105390000B1409FAF7F20B02F7FCF100F300FC0D15
:1053A000200DFD00F1F103FD02F0E8F31C210BE3F9
:1053B0000314F802F9F504F9F501F91611F6F9EEFE
:1053C000F0120F00F7FCF7F90213080707F9F7EEE0
:1053D000FEEC0D0DECE7112514FAFB02F800FCEFD2
:1053E000FD01DE10020621FCFDF7F50EF9FFFFF9C5
:1053F000F8F8F2FA24120EFEFBEDF70303FAF4E1DB
:10540000002115FCE9180AFF00F3F60BF3FFEFF497
:105410001F0DF9FBEEF6180101FFF4FAF6FF1D006F
:105420000D07FCEFEDF2FD1BFCE5F81A0F0E00FE78
:1054300003FDFEF9E70DF1F711E7121CFCFF00F781
:105440000AF9FA04F4F4FBE613220B0B04F5EBFA69
:105450000006FCECEB140610FBF81CFF0000E8074C
:1054600003F7FAE7FD1C0DF108E00C1DF508F7F451
:10547000FEF104110C0C08F4EEF8E61311F1E7113B
:10548000050A16F30700FE03EEF409EB0701EA1420
:105490001BF60DF9F70CEF09FFECFDF3EB1B1808F9
:1054A00014FBF1F9F50AFBF8EB0607FA15F20D11FA
:1054B0000201F7EE0506FAF3EAFC2200FF04DE1D06
:1054C00007FB08F5F202F8020A031604EFF6F1F3FF
:1054D0001701EC0D06F0130B0100FF00FEF0F701C1
:1054E000F210F7EB1610FE0FF5FC03F90600ECFCCA
:1054F000F1F120081010F9F1F6FD06F9EE0D06ECB9
:105500000300051706FF00FDEC0701FAF0EB081198
:10551000040AF3F31B01FF05F3F303F508FB101373
:10552000FDF3F4ECFD1AED1107F1FA081202FA0589
:10553000FF00EBF7FBFB11EEFB08110905F600FF7E
:10554000FA07F7EFFFED0313091904FCF1F5FA0967
:10555000EA0B12EDF9F60113100207FDF7EF040054
:10556000FCF1F3010D0DFFED0519F70AFCEFFEFC50
:10557000FCFAFD1A0FFCFAEBE61603F91DF3FAF438
:10558000011500FF0903F8F1F0F90E05EDF808190F
:1055900003FAFD04FEFF02F0FFF2F20E070B130305
:1055A00001F2ED0CF7F11902F4F8E9051A0C060402
:1055B000FDF7F0FE07FDF3F0010E12F2F4180900FA
:1055C00000F300FEF6FEF403150AFD00DDF912F803
:1055D0001808F5FCF1001103000AFEF3F9E60019C2
:1055E00000ECF8071705F509FFFF02F3F50DE8F4E5
:1055F0000CFF1418FC04EEF008E70F18F4F2F8E6BC
:10560000111E050A04F9F6F3FC0401F0F30309196D
:10561000E306130606FAF10401EFFDF20B1A02FF8E
:10562000FED808FF0D1BFAF0F7F60411FD0F04FE7B
:10563000EFF5E80819F6F0FA051901FB04FE03FE80
:10564000F7F70CDE0008FE1B09FF08EBF9F5F4255F
:1056500007EEF1F5E52114050EFEFAF2F6FD09F864
:10566000EFF403160AE70C120100F9F40DFBF0F950
:10567000F41615FF00F3DE03051F10F1F3F8F60B27
:1056800009FE1004F9F3F9E21610F3EDFB1115020F
:10569000F404FD08FFF105FFDC0505071A0300010E
:1056A000EEF1F6141DF8ECF0F2F7220D070CF7F608
:1056B000F7FA0601F6ECF7081707E912050103F7F8
:1056C000FE09FAE7F4FF1A13FC00EBE2051B1D02CA
:1056D000EEE9F9020C030312FEF4F6F1F71506ECFD
:1056E000F0051315FEF7F80505FFFCFBFDE10403CB
:1056F0000E1AFFFFFBF2E80E1A08F8E2F3F6071D98
:10570000050C04FAF8F305FDFCF4EFFC0E16FAF7AD
:10571000070902FE02FB05FAE8F804140CFCFAE99A
:10572000E81E1F04FFE6F4FB0908FB0B0BFEF7F570
:10573000EC040FFAF3F3091C0903EBFD0A0004F66D
:10574000FCF0F500090F1100FBFEE9FB180903EE60
:10575000EBF5F71515030506F5FEF505F7F6FFEE73
:10576000FD140FF5000408010500F5FF01E0FE0F30
:105770001103F7FFDF09210BFAFCECEF030B050126
:10578000050EF7FEF5EC0A0203F3FA03170504F021
:10579000FB0EFF02F2F3FDFAFE0C070BFD04F00313
:1057A000030A01FEF7E4F9FC190D040900FAFFF5FC
:1057B000FDF201FEF7F81001010FF70C0303F8F6F4
:1057C0000300E0050C0805FDEA01180404FD03E4EC
:1057D000FC040BFC080505FDF9EEF0110002FCF3DA
:1057E00000130C07EB030902F7FAEC0302F60C02B4
:1057F0000D01F80712E8040300F8EEEF02190E029B
:105800000602F8FFF300F30402F3F30D020A0DF8A9
:105810000A02FAFEF804FEE505030C05F4F91DFD85
:10582000F909FC01F2F5FE05060A010AFAF3E8059A
:10583000070408F8E802180B07F10503FBFEF5EE74
:1058400013FCED0A0708FC0420F0E808FE05FBE85D
:10585000E716130B020701F2FDFCF4FF0DFCE6F85E
:105860000C011A04FC0404F8FEF90AF6DF0C050525
:10587000FF000C0CF4FD050101F2EA0DFD090D001D
:1058800006F3F4F00C040904F1EF031411FCF8FD25
:105890000BF8FAF2F916EAFA050A010C1205EBEE1A
:1058A000080406F4DA02130D0F0005FAFBF301F504
:1058B0000B02F6F2F3051018FDFB09FEF9FFF905DE
:1058C000EAF7FC0B001001010FEA050303FBEEF9F8
:1058D00003FC1507FE01FAE4030C0506F9F6EA08D5
:1058E000180EF305FE02FCF9EFFE0DF0F60A0113A7
:1058F000120202E1020506FBF3E204110B10F806A6
:1059000000F302FAF50CFDFBEDF6051C0706FFFDA2
:1059100004F5FFFAFEF1F800FE130BF70DFAFC0296
:1059200006FBFFEBF904FF1BF606FFF0F40C010584
:1059300009F4F7F4051AF90504F70AF5F6EE0D0077
:10594000F6FCFF0D170601F2F10700FE03EEE5116C
:10595000041406FE00FDF807F1FB14F3FDEDF50855
:105960001A0B03F90400F4FE03EEFDFAF41512FF1E
:10597000F60DFBFEFEFF05FCF1FFF40914FEFF012E
:10598000EEFE09F712F9FEF5F1041CFC0604F4081A
:10599000F0F5FE0303FBED0A1A09FE06EEFFFE0119
:1059A00002FEEEEF0B001804FA05F8FE06ED0906FC
:1059B000FAF9F0EB1B17020DF103FBFDFFF9F205FD
:1059C000EA061C01F90308FEFDFD010101F2F7F2F0
:1059D000150DFE01FFEE0408F90A00FAF6EE1013A9
:1059E000F914F9F9FFF9EE050205F0F71C060505B3
:1059F000FDF302FA0000FDEFF9FD0B0D08FC01FEBE
:105A0000FF04EA0903FFF5EBF91B0F0704F4010596
:105A1000F204F6F8FDF4150304FC07FE04FCFD0493
:105A200000FFF4EEFE100DFFFAFDF50DFA0406FF7F
:105A3000F9F5F4100B000EF6FB04F0F702FF02F389
:105A40000E06080307F4FD03F409FAFBF1F9020955
:105A50001102F8030105F1F90703FDF7EDF7190E3F
:105A60000AFEF900FDFC02F0F901030802FE000243
:105A70000B01F504FE01FBFAEA030E08FFF805F935
:105A80000401FC0600FAF7F610040606FDFFFDF51A
:105A9000F6FE00FE000905030703F803F8FF02F90C
:105AA000F9F9F209080A03F70B0002F2FC030400FB
:105AB000F2ED00140F0501F704FCFEFDE904FE0AF7
:105AC00005FC00FF050AFCF70400FB05EEF00906E3
:105AD0000EF80100F90203FC0405F8F6FB090307C0
